{
  "transactions": [
    {
      "hash": "0x0405e7742c1f15988e5987e18f3ae86a5bfd32276f902b6cec74575f1c85809d",
      "transactionType": "CREATE",
      "contractName": "SimpleCoin",
      "contractAddress": "0x25Fe8d0d130aa78744F56b21f6595eAb884E7da9",
      "function": null,
      "arguments": null,
      "rpc": "https://api.hyperspace.node.glif.io/rpc/v1",
      "transaction": {
        "type": "0x02",
        "from": "0x42c930a33280a7218bc924732d67dd84d6247af4",
        "gas": "0x251354",
        "value": "0x0",
        "data": "0x608060405234801561001057600080fd5b503260009081526020819052604090206127109055610307806100346000396000f3fe608060405234801561001057600080fd5b50600436106100415760003560e01c80637bd703e81461004657806390b98a111461006f578063f8b2cb4f1461008f575b600080fd5b6100596100543660046101d3565b6100b8565b6040516100669190610204565b60405180910390f35b61008261007d366004610223565b6100e2565b6040516100669190610268565b61005961009d3660046101d3565b6001600160a01b031660009081526020819052604090205490565b6001600160a01b0381166000908152602081905260408120546100dc90600261028c565b92915050565b33600090815260208190526040812054821115610101575060006100dc565b33600090815260208190526040812080548492906101209084906102ab565b90915550506001600160a01b0383166000908152602081905260408120805484929061014d9084906102be565b90915550506040516001600160a01b0384169033907fddf252ad1be2c89b69c2b068fc378daa952ba7f163c4a11628f55a4df523b3ef9061018f908690610204565b60405180910390a350600192915050565b60006001600160a01b0382166100dc565b6101ba816101a0565b81146101c557600080fd5b50565b80356100dc816101b1565b6000602082840312156101e8576101e8600080fd5b60006101f484846101c8565b949350505050565b805b82525050565b602081016100dc82846101fc565b806101ba565b80356100dc81610212565b6000806040838503121561023957610239600080fd5b600061024585856101c8565b925050602061025685828601610218565b9150509250929050565b8015156101fe565b602081016100dc8284610260565b634e487b7160e01b600052601160045260246000fd5b8181028082158382048514176102a4576102a4610276565b5092915050565b818103818111156100dc576100dc610276565b808201808211156100dc576100dc61027656fea264697066735822122079cd8d4c7be04d1a78e6fd98737759678b1270f379b2ce9c7324059fa9e4dc3664736f6c63430008110033",
        "nonce": "0x46",
        "accessList": []
      },
      "additionalContracts": [],
      "isFixedGasLimit": false
    },
    {
      "hash": "0x407049386780f091a15eea50e9f347eecc85257a04693171fb6fd33fa09d23f0",
      "transactionType": "CALL",
      "contractName": "SimpleCoin",
      "contractAddress": "0x25Fe8d0d130aa78744F56b21f6595eAb884E7da9",
      "function": "sendCoin(address,uint256):(bool)",
      "arguments": [
        "0x42C930A33280a7218bc924732d67dd84D6247Af4",
        "100"
      ],
      "rpc": "https://api.hyperspace.node.glif.io/rpc/v1",
      "transaction": {
        "type": "0x02",
        "from": "0x42c930a33280a7218bc924732d67dd84d6247af4",
        "to": "0x25fe8d0d130aa78744f56b21f6595eab884e7da9",
        "gas": "0x4a83a",
        "value": "0x0",
        "data": "0x90b98a1100000000000000000000000042c930a33280a7218bc924732d67dd84d6247af40000000000000000000000000000000000000000000000000000000000000064",
        "nonce": "0x47",
        "accessList": []
      },
      "additionalContracts": [],
      "isFixedGasLimit": false
    }
  ],
  "receipts": [],
  "libraries": [],
  "pending": [
    "0x0405e7742c1f15988e5987e18f3ae86a5bfd32276f902b6cec74575f1c85809d",
    "0x407049386780f091a15eea50e9f347eecc85257a04693171fb6fd33fa09d23f0"
  ],
  "path": "/Users/xh/fevm-foundry-kit/broadcast/SimpleCoin.s.sol/3141/run-latest.json",
  "returns": {},
  "timestamp": 1680092611,
  "chain": 3141,
  "multi": false,
  "commit": "dd00721"
}